:020000040800F2
:10000000FF4F00204D1700089517000895170008AE
:1000100095170008951700089517000800000000C4
:10002000000000000000000000000000951700081C
:10003000951700080000000095170008D109000876
:1000400095170008951700089517000895170008E0
:1000500095170008951700089517000895170008D0
:1000600095170008951700089517000895170008C0
:1000700095170008951700089517000895170008B0
:1000800095170008951700089517000895170008A0
:100090009517000895170008951700089517000890
:1000A0009517000895170008951700089517000880
:1000B0009517000895170008951700089517000870
:1000C0009517000895170008951700089517000860
:1000D0009517000895170008951700089517000850
:1000E00095170008951700089517000800000000F4
:1000F0000000000000000000000000000000000000
:0C01000000000000000000005FF808F1A3
:10010C0010B5054C237833B9044B13B10448AFF345
:10011C0000800123237010BDD000002000000000DF
:10012C00FC27000808B5034B1BB103490348AFF388
:10013C00008008BD00000000D4000020FC2700084F
:10014C00F8B5174600280BDD461E4AB14C1E11446B
:10015C004D1E14F8011F304600F0A8FCAC42F8D13B
:10016C003846F8BD0020704710B40468234600E000
:10017C00134633B11A68002AFAD10A60196010BC10
:10018C0070470C600160FAE710B5044600F0C4FB40
:10019C00054A9368D1681B1941F100019360D16045
:1001AC0000F0C2FB10BD00BFF000002010B50446EB
:1001BC0000F0B2FB7CB10B4B1B6873B1A3420ED0A9
:1001CC001B681BB1A342FBD1012400E0002400F00A
:1001DC00ABFB204610BD0024F9E70024F7E701240F
:1001EC00F5E700BFF000002038B504460D4600F0DE
:1001FC0093FB84B1237D13F0020F10D13DB113F0AA
:10020C00010F04D10C4B9B6822691344E360237DDE
:10021C0065F30003237500F087FB002038BD002D2B
:10022C00F5D013F0010FF2D100222261237D62F38D
:10023C0082032375EBE700BFF0000020A0B1F8B5F6
:10024C000D4617461E460446FFF7B0FF78B9A5B910
:10025C0087B16660069BA360237D03F0FC036FF3FC
:10026C0082032375276113E04FF0FF3070474FF086
:10027C00FF3016E06FF0010013E06660069BA36090
:10028C00237D03F0FE0365F341036FF382032375B3
:10029C0000F042FB21460348FFF766FF00F044FBE9
:1002AC000020F8BDF00000202DE9F04700F034FBF1
:1002BC00224B9E68DD6800F037FBDFF880A04FF022
:1002CC000009DAF80040002C35D04F464FF00108F9
:1002DC001BE000F021FBE3684BB19E4275F100037B
:1002EC0005D3C4F80C90237D43F004032375237DC0
:1002FC0013F0040F05D0C4F80C906368A0689847FD
:10030C00474600F011FB24689CB1237D13F0010FCC
:10031C00F9D013F0020FDCD1E3689E4275F10002B4
:10032C00F1D322691344E3606368A0689847474699
:10033C00E9E7002FC5D1BDE8F08700BFF000002031
:10034C0010B5054B00241C605C609C60DC600348AD
:10035C0000F032FB204610BDF00000209501000893
:10036C0000B583B08DF804009DF8050061F306001C
:10037C0062F3C7108DF80500ADF80630034BDB694E
:10038C000BB101A8984703B05DF804FB00010020F5
:10039C000F4B9B691A78C2B110B51C46824205D02E
:1003AC0013F80A2F002AF8D1002010BD587800F05D
:1003BC00DFF9A37813F0010F03D0003818BF012028
:1003CC00F3E7B0FA80F04009EFE70020704700BF78
:1003DC00000100202DE9F8435C4B9C692078002833
:1003EC0000F0B1800A251E464FF000084FF00109BD
:1003FC000DE0A4F80480A4F8068084F808806772E5
:10040C00B3695C19585D0A35002800F09C80A3780C
:10041C0013F0020F1BD0FFF7BBFF0746637A834232
:10042C00E7D1B4F90430B6F924209A4202DD328CBB
:10043C001344A380B4F90430B6F922209A42DED1D9
:10044C003A4694F908102078FFF78AFFD7E7FFF7B0
:10045C009FFF0746B8B3637A43B1B4F90430B6F9D9
:10046C0024209A4202DD328C1344A380B4F9043068
:10047C00B6F922209A4213D0B4F90430002B06DDD1
:10048C00B6F92A1093FBF1F201FB1232A2B1B4F9C6
:10049C000420B6F924309A4243DBA4F8048024E00B
:1004AC00B6F92620E280217A013149B221724A46FE
:1004BC002078FFF755FFDFE74A4694F908102078BB
:1004CC00FFF74EFFE3E7637A6BB1B4F90430B6F98A
:1004DC0022209A4218DD94F90820B6F928309A4265
:1004EC00A8BF84F80880A4F80480B4F90630002B67
:1004FC0011DD328C9B1A1BB2E380002B20DC4746AB
:10050C0084F8088067727BE7424694F908102078DB
:10051C00FFF726FFDFE784F8098071E784F809907C
:10052C006EE7B4F90630002BF8DD328C9B1A1BB247
:10053C00E380002BC8BF84F809903FF761AFDFE779
:10054C0084F809805CE7BDE8F88300BF0001002057
:10055C00F0B583B005460C461F4F2C2200213846BF
:10056C0001F038F907F11C0695E80F0086E80F003A
:10057C00BC612378F3B10A2500271C3E04E0B46962
:10058C002C440A352378ABB1A37813F0010F14BFB8
:10059C00202110213B463A4641F00101607800F0E1
:1005AC007BF8A37813F0020FE9D02078FFF7F0FE68
:1005BC006072E4E7084D00240094084BB5F9202044
:1005CC0021462846FFF73AFE01212846FFF70CFE8C
:1005DC00204603B0F0BD00BF00010020E10300087D
:1005EC0000F01F030F2B11D831B10E4A42F8330023
:1005FC0002EBC303596070470A4A02EBC30252680C
:10060C0022B1084A52F83320824200D07047054A82
:10061C004FF0FF3142F8331002EBC30300225A6053
:10062C00F4E700BF2C01002010B58AB08646EC46DA
:10063C000E4C0FCCACE80F000FCCACE80F0094E8DC
:10064C0003008CE803004FEA5E1000235DF83320B2
:10065C00904205D00133052BF8D100200AB010BD13
:10066C000AAA02EBC30353F8240CF7E7142800087A
:10067C000146084B186860B103784BB1024610462E
:10068C00994206D012F8033F002BF8D10020704796
:10069C0000207047AC0100202DE9F04385B00546E1
:1006AC000C4690461F46FFF7BFFF06466B4205F00F
:1006BC001F0003F01F0358BF584201218140002343
:1006CC000193029300910323039314F0070923D1A0
:1006DC0014F0080F0CBF012311230193424689B279
:1006EC00304600F05BFC04F07004102C37D0202C4A
:1006FC000CBF022300230293B9F1020F0CBF394641
:10070C0000212846FFF76CFF6946304600F006FBD7
:10071C00002005B0BDE8F083B9F1010FE3D0B9F1C9
:10072C00020F08D0B9F1030F16D0B9F1040F04BFB2
:10073C0003230193D7E714F4607302D1094B01939F
:10074C00D1E7802B05D0B3F5807FCCD1064B01933C
:10075C00C9E7064B0193C6E703230193C3E70123C3
:10076C000293C9E7000011100000311000002110A5
:10077C0010B50446FFF758FF634204F01F0403F062
:10078C001F0358BF5C420121A14089B200F000FC5C
:10079C00012814BF0020012010BD10B50446FFF73E
:1007AC0043FF634204F01F0403F01F0358BF5C4275
:1007BC000121A14089B200F0F7FB002010BD000020
:1007CC0086B0264B03F180004FF0FF3100221960F8
:1007DC005A6008338342FAD1214B9A6942F00402E1
:1007EC009A619A6902F004020092009A9A6942F0A6
:1007FC0008029A619A6902F008020192019A9A69B8
:10080C0042F010029A619A6902F010020292029A66
:10081C009A6942F020029A619A6902F020020392CE
:10082C00039A9A6942F040029A619A6902F0400276
:10083C000492049A9A6942F001029A619B6903F04E
:10084C0001030593059B074A536823F0E06343F0CB
:10085C0000735360002006B0704700BF2C010020CD
:10086C00001002400000014008B5FFF701FF18B16D
:10087C004078FFF792FF08BD4FF0FF30FBE7000018
:10088C00F8B5244B1860002842D00378002B3FD0D9
:10089C000324002604271F4D0AE03346324601216B
:1008AC004078FFF7F9FE28682044033403787BB3C3
:1008BC008378002BF1D0012B0ED0022B13D0032BFD
:1008CC0018D0042B1DD0052BEDD1334632463946BA
:1008DC004078FFF7E1FEE6E73346324611214078D7
:1008EC00FFF7DAFEDFE73346324631464078FFF752
:1008FC00D3FED8E73346012231464078FFF7CCFED1
:10090C00D1E73346324603214078FFF7C5FECAE7EC
:10091C000020F8BDAC01002072B6024A1368013306
:10092C0013607047B0010020034A1368013B136049
:10093C0003B962B6704700BFB001002010B584B097
:10094C000190144BDA6942F00402DA61DB6903F0BE
:10095C0004030393039B104C41F63F736360019BAC
:10096C00E360204600F0C0FE23686FF001021A61BC
:10097C00204600F029FE2268136913F0010FFBD00A
:10098C00054800F04FFE034AD36923F00403D361FA
:10099C0004B010BD0010024000000020044B5B6A44
:1009AC0018B1044A0121C2F8E0141846704700BF80
:1009BC000010024000004242014B1860704700BF1B
:1009CC00B401002008B500F04DF9034B1B680BB1C6
:1009DC000120984708BD00BFB401002070B590B04D
:1009EC00154A136843F01003136000250895099508
:1009FC000B950C95012206924FF4803307930A92C3
:100A0C0002260D960E934FF4C0130F9306A800F018
:100A1C00D5FA0DF1040C094C0FCCACE80F0023688F
:100A2C00CCF80030314601A800F014FD284600F047
:100A3C00F3F8284610B070BD002002403C28000896
:100A4C0038B5154C48220021204600F0C3FE022385
:100A5C00236101236361114AA261114BE3614FF4DD
:100A6C00806323620023A3626362E362A2640D4A83
:100A7C00E26410222265A3656365E3650A4C04F108
:100A8C000F039C46044DACEB030118786854A34249
:100A9C0003F1FF33F7D138BDB801002060280008FE
:100AAC0028020020180200206C28000838B50446E3
:100ABC000D46214B1B7883B3EFF3118C4FF02001C3
:100ACC0081F3118804EB44021B4B03EBC202506A06
:100ADC00431C126A9A4208BF002304EB44021649D5
:100AEC0001EBC202D26A022A1AD004EB4402124968
:100AFC0001EBC202926A9A421BD0621C02EB4202C8
:100B0C0001EBC2025268155404EB440401EBC4041B
:100B1C00636201208CF3118838BDFFF791FFCBE79E
:100B2C0004EB4401044A02EBC1018A6A9A42FCD0EC
:100B3C00DBE70020EEE700BFB801002070470000A3
:100B4C0008B5054B19684A1C1A60044800F0ECFE05
:100B5C000120FFF789FE08BD280600208028000828
:100B6C007047000070B586B01248FFF789FE124B33
:100B7C0002AC0FCB84E80F0010492046FFF7E8FCCD
:100B8C001924012614253046FFF76EFE2846FFF780
:100B9C00D5FE013CF7D10A4C00210091094B64228F
:100BAC002046FFF74BFB01212046FFF71DFB06B04B
:100BBC0070BD00BF8C280008502800084800002099
:100BCC002C0600204D0B000808B572B6FFF706FF87
:100BDC00FFF7F6FDFFF7C6FA0B4800F02BFFFFF707
:100BEC00AFFBFFF7BFFF0120FFF7D8FE0146074818
:100BFC0000F09AFE064800F01DFF62B6FFF7B0FF4A
:100C0C00FFF752FB30BFFBE794280008BC28000814
:100C1C00D42800087047000010B504460E4B187815
:100C2C004FF47A73B3FBF0F30C4A1068B0FBF3F09B
:100C3C0000F060F868B90F2C01D901200AE00022FD
:100C4C0021464FF0FF3000F01FF8054B1C600020D0
:100C5C0000E0012010BD00BF600000205C000020FF
:100C6C0064000020034A1168034B1B780B4413608B
:100C7C00704700BF4406002060000020014B18683C
:100C8C00704700BF4406002000B5184BDB68C3F367
:100C9C000223C3F1070CBCF1040F28BF4FF0040C66
:100CAC0003F1040EBEF1060F8CBF033B00234FF083
:100CBC00FF3E0EFA0CFC21EA0C0199400EFA03F3EC
:100CCC0022EA03021143002809DB0901C9B200F131
:100CDC00604000F5614080F800135DF804FB00F003
:100CEC000F000901C9B2024B1954F6E700ED00E000
:100CFC0014ED00E00138B0F1807F0BD24FF0E0230F
:100D0C005861054AF02182F82310002098610722CF
:100D1C001A6170470120704700ED00E02DE9F04F9B
:100D2C0083B0D1F80090B9F1000F00F01F810022C0
:100D3C001346904E904C914DDFF844E29446BAE045
:100D4C004FF0000C25E0A9450FD006D9F1450CD089
:100D5C00DFF830A2D14508D01BE0DFF82CA2D1453A
:100D6C0003D00AF5702AD1450FD1D1F808C0BCF1D7
:100D7C00000F00F0EF80BCF1010F0CBFC0F8108029
:100D8C00C0F814804FF0080C03E0AAF5801AD14586
:100D9C00EBD0FF2F99BF8146924600F10409A2F1D6
:100DAC00200AD9F800804FF00F0B0BFA0AFB28EA47
:100DBC000B080CFA0AFA48EA0A08C9F80080D1F8BC
:100DCC00048018F0805F6FD0D6F8188048F00108C6
:100DDC00C6F81880D6F8188008F00108CDF8048001
:100DEC00DDF8048023F0030808F1804808F580380A
:100DFC00D8F808A003F003094FEA890B4FF00F094C
:100E0C0009FA0BF92AEA090ADFF88091484500F043
:100E1C00A48009F58069484500F0A28009F5806935
:100E2C00484500F0A08009F5806948450CBF4FF09B
:100E3C0003094FF0040909FA0BF949EA0A09C8F841
:100E4C000890D1F8048018F4803FD4F8008014BFC7
:100E5C0048EA070828EA0708C4F80080D1F804809B
:100E6C0018F4003FD4F8048014BF48EA070828EAB5
:100E7C000708C4F80480D1F8048018F4801FD4F853
:100E8C00088014BF48EA070828EA0708C4F8088055
:100E9C00D1F8048018F4001FD4F80C8014BF48EA71
:100EAC00070728EA0707E7600133D1F800900432FE
:100EBC0039FA03F75AD04FF0010808FA03F808EA98
:100ECC00090738EA0909EFD1D1F80490B9F1120FEA
:100EDC003FF639AFB9F1120F3FF65BAF0FF2040AD0
:100EEC005AF829F0770D00083D0F00084D0F000847
:100EFC004D0D00089F0D00089F0D00089F0D000868
:100F0C009F0D00089F0D00089F0D00089F0D000805
:100F1C009F0D00089F0D00089F0D00089F0D0008F5
:100F2C009F0D00089F0D0008430F0008570F000885
:100F3C00D1F80CC02DE7D1F80CC00CF1040C28E74B
:100F4C00D1F80CC00CF1080C23E7D1F80CC00CF153
:100F5C000C0C1EE74FF0040C1BE74FF000096AE77E
:100F6C004FF0010967E74FF0020964E703B0BDE8F1
:100F7C00F08F00BF0010024000040140000022105E
:100F8C000000311000003210000012100008014067
:100F9C008368194214BF0120002070470AB1016117
:100FAC007047090401617047C36801EA030221EA32
:100FBC00030141EA0241016170470000002800F082
:100FCC0001822DE9F04182B00446036813F0010F51
:100FDC002CD09F4B5B6803F00C03042B1DD09C4B57
:100FEC005B6803F00C03082B12D06368B3F5803FE9
:100FFC0041D0002B55D103F1804303F504331A681B
:10100C0022F480321A601A6822F480221A6037E0C7
:10101C008F4B5B6813F4803FE7D08D4B1B6813F448
:10102C00003F03D06368002B00F0CE81236813F0DF
:10103C00020F75D0864B5B6813F00C0F5FD0844B9E
:10104C005B6803F00C03082B54D02369002B00F0D1
:10105C008A80804B01221A60FFF710FE05467C4EF9
:10106C00336813F0020F75D1FFF708FE401B0228FE
:10107C00F6D90320ADE1764A136843F4803313604C
:10108C00636843B3FFF7FAFD0546714E336813F4FA
:10109C00003FCBD1FFF7F2FD401B6428F6D90320AB
:1010AC0097E1B3F5A02F09D0694B1A6822F480326E
:1010BC001A601A6822F480221A60E1E703F1804377
:1010CC00A3F53C331A6842F480221A601A6842F481
:1010DC0080321A60D4E7FFF7D1FD05465C4E3368C9
:1010EC0013F4003FA2D0FFF7C9FD401B6428F6D9CA
:1010FC0003206EE1564B5B6813F4803FA5D1544B33
:10110C001B6813F0020F03D02369012B40F05E81A2
:10111C004F4A1368616923F0F80343EAC103136073
:10112C00236813F0080F3DD0A369002B66D0494B00
:10113C000122C3F88024FFF7A1FD0546444E736AD3
:10114C0013F0020F21D1FFF799FD401B0228F6D9AD
:10115C0003203EE13E4A1368616923F0F80343EA39
:10116C00C1031360DCE73B4B00221A60FFF786FDDE
:10117C000546374E336813F0020FD1D0FFF77EFDD2
:10118C00401B0228F6D9032023E1334B1B68334A5A
:10119C00A2FB03235B0A019300BF019B5A1E019221
:1011AC00002BF9D1236813F0040F00F09B80284B1F
:1011BC00DB6913F0805F34D1254BDA6942F0805241
:1011CC00DA61DB6903F080530093009B0125244B0B
:1011DC001B6813F4807F26D0E368012B42D0002BD0
:1011EC0058D103F1804303F504331A6A22F001024B
:1011FC001A621A6A22F004021A6238E0154B0022B5
:10120C00C3F88024FFF73AFD0546114E736A13F0BC
:10121C00020FC7D0FFF732FD401B0228F6D903207E
:10122C00D7E00025D3E70E4A136843F480731360AC
:10123C00FFF724FD06460A4F3B6813F4807FCBD1A1
:10124C00FFF71CFD801B6428F6D90320C1E000BF0A
:10125C0000100240000042425C000020D34D62109E
:10126C00007000405E4A136A43F001031362E368A6
:10127C0033B3FFF703FD0646594F41F288383B6AFA
:10128C0013F0020F2DD1FFF7F9FC801B4045F6D966
:10129C0003209EE0052B09D0514B1A6A22F0010263
:1012AC001A621A6A22F004021A62E0E74C4B1A6ABC
:1012BC0042F004021A621A6A42F001021A62D6E77C
:1012CC00FFF7DCFC0646464F41F288383B6A13F0C8
:1012DC00020F06D0FFF7D2FC801B4045F6D9032045
:1012EC0077E0E5B9E369002B72D03D4A526802F011
:1012FC000C02082A56D0022B17D03A4B00221A6641
:10130C00FFF7BCFC0446364D2B6813F0007F47D02A
:10131C00FFF7B4FC001B0228F6D9032059E0304A31
:10132C00D36923F08053D361DCE72E4B00221A667D
:10133C00FFF7A4FC05462A4E336813F0007F06D055
:10134C00FFF79CFC401B0228F6D9032041E0236ADE
:10135C00B3F5803F1AD022494A68236A606A034376
:10136C0022F4741213434B601E4B01221A66FFF7D2
:10137C0085FC04461A4D2B6813F0007F0ED1FFF745
:10138C007DFC001B0228F6D9032022E0144A536886
:10139C0023F40033A1680B435360DCE7002018E012
:1013AC00002016E0012B17D00D4B5B6803F4803145
:1013BC00226A914212D103F47013606A181A18BF92
:1013CC00012006E001207047012002E0012000E02E
:1013DC00002002B0BDE8F0810120FAE70120F8E717
:1013EC00001002400000424286B0164B0FCB0DF1AC
:1013FC00180C0CE90F0040F20123ADF80430124B2D
:10140C005B6803F00C02082A02D0104806B0704743
:10141C00C3F38342624412F8100C13F4803F0CD0D7
:10142C00094B5B68094A02FB00F0C3F34043634479
:10143C0013F8143CB0FBF3F0E8E7054B03FB00F0AA
:10144C00E4E700BF0C2900080010024000127A00EB
:10145C0000093D00002800F0A2802DE9F0410D4666
:10146C000446534B1B6803F007038B420BD2504AC4
:10147C00136823F007030B431360136803F007038F
:10148C008B4240F08E80236813F0020F17D013F0BC
:10149C00040F04D0474A536843F4E0635360236855
:1014AC0013F0080F04D0434A536843F4605353605D
:1014BC00404A536823F0F003A1680B435360236840
:1014CC0013F0010F31D06268012A20D0022A25D0F6
:1014DC00384B1B6813F0020F65D036494B6823F06C
:1014EC00030313434B60FFF7C9FB0646314F41F230
:1014FC0088387B6803F00C036268B3EB820F14D05E
:10150C00FFF7BCFB801B4045F3D9032045E0294B7A
:10151C001B6813F4003FE0D101203EE0254B1B6813
:10152C0013F0007FD9D1012037E0214B1B6803F069
:10153C000703AB420AD91E4A136823F007032B4357
:10154C001360136803F00703AB422ED1236813F02A
:10155C00040F06D0174A536823F4E063E1680B4389
:10156C005360236813F0080F07D0124A536821699F
:10157C0023F4605343EAC1035360FFF735FF0D4B6F
:10158C005B68C3F303130C4AD35CD8400B4B186055
:10159C000B4B1868FFF740FB0020BDE8F0810120E1
:1015AC0070470120F9E70120F7E70120F5E700BFBC
:1015BC000020024000100240FC2800085C000020C3
:1015CC00640000207047000090F83D30DBB2012B26
:1015DC0022D1022380F83D300368114A934210D087
:1015EC00B3F1804F0DD0A2F59432934209D002F59D
:1015FC008062934205D01A6842F001021A60002002
:10160C0070479A6802F00702062A07D01A6842F05F
:10161C0001021A60002070470120704700207047BB
:10162C00002C01400368196A41F21112114208D1D1
:10163C00196A40F24442114203D11A6822F00102A5
:10164C001A60012380F83D30002070470368254A5A
:10165C00904214D0B0F1804F2BD0A2F5943290422E
:10166C0022D002F58062904237D023F080034A6981
:10167C00134303608B68C3620B6883622AE023F018
:10168C0070034A68134323F44073CA68134323F06E
:10169C0080034A69134303608B68C3620B688362DF
:1016AC000A69104B1A6315E023F070034A68134360
:1016BC0003E023F070034A68134323F44073CA68B1
:1016CC00134323F080034A69134303608B68C3629E
:1016DC000B68836201234361704723F070034A68EF
:1016EC001343EAE7002C014040B310B5044690F8D0
:1016FC003D30F3B1022384F83D30214651F8040B00
:10170C00FFF7A4FF012384F8463084F83E3084F8B8
:10171C003F3084F8403084F8413084F8423084F80B
:10172C00433084F8443084F8453084F83D30002050
:10173C0010BD80F83C30FFF745FFDBE70120704718
:10174C00002103E00B4B5B58435004310A480B4B10
:10175C0042189A42F6D30A4A02E0002342F8043BAC
:10176C00084B9A42F9D3FFF755FA00F00FF8FFF740
:10177C002BFA7047C029000800000020CC00002084
:10178C00D00000205C060020FEE7000070B50026AB
:10179C000C4D0D4C641BA410A64209D101F028F885
:1017AC0000260A4D0A4C641BA410A64205D170BD3C
:1017BC0055F8043B98470136EEE755F8043B98473B
:1017CC000136F2E7B8290008B8290008B829000842
:1017DC00BC29000803460244934200D1704703F829
:1017EC00011BF9E738B50546002940D051F8043CF7
:1017FC000C1F002BB8BFE41800F010FC1C4A136837
:10180C0033B9636014602846BDE8384000F00CBC66
:10181C00A34208D9206821188B4201BF19685B6864
:10182C0009182160EDE71A465B680BB1A342FAD99F
:10183C0011685018A0420BD1206801445018834203
:10184C001160E0D118685B68014411605360DAE7FD
:10185C0002D90C232B60D6E7206821188B4201BFDC
:10186C0019685B680918216063605460CBE738BD68
:10187C0048060020F8B5CD1C25F0030508350C2DC5
:10188C0038BF0C25002D064601DBA94203D90C23D9
:10189C0033600020F8BD00F0C1FB21490A681446F2
:1018AC009CB9204F3B6823B92146304600F0CAF85A
:1018BC0038602946304600F0C5F8431C23D10C2370
:1018CC003046336000F0B0FBE3E723685B1B17D4B2
:1018DC000B2B03D923601C44256004E06368A242EF
:1018EC000CBF0B605360304600F09EFB04F10B0004
:1018FC00231D20F00700C21ACCD01B1AA350C9E735
:10190C0022466468CCE7C41C24F00304A042E3D054
:10191C00211A304600F096F80130DDD1CFE700BF38
:10192C00480600204C0600200FB40A4B13B51C6867
:10193C0024B1A36913B9204600F06AFA05AB20461E
:10194C00049AA168019300F09DFB02B0BDE8104021
:10195C0004B070476800002070B50E46054618B1FB
:10196C0083690BB900F054FAAB69AC6813B928461B
:10197C0000F04EFA2C4B9C4220D16C68636EDB0756
:10198C0005D4A389980502D4A06D00F0DFFAA389D1
:10199C0019071DD52369DBB1013EA36816F8011F99
:1019AC00013BA36039BB002B38DA22460A212846BA
:1019BC0000F058F8013011D00A2511E01B4B9C4265
:1019CC0001D1AC68DAE71A4B9C4208BFEC68D5E74A
:1019DC002146284600F098F80028DDD04FF0FF355E
:1019EC00636EDA0705D4A3899B0502D4A06D00F0C1
:1019FC00AEFA284670BD002B04DAA2699A4206DCC6
:101A0C000A2904D023685A1C22601970C5E72246A3
:101A1C00284600F027F80130BFD1DFE70A252368FC
:101A2C005A1C22601D70DBE7442900086429000859
:101A3C0024290008024B01461868FFF78DBF00BF30
:101A4C006800002038B50023054D044608462B607D
:101A5C0000F0C0FE431C02D12B6803B1236038BDDB
:101A6C0054060020F8B50E461446054618B1836995
:101A7C000BB900F0CDF9214B9C422BD16C68A369BA
:101A8C00A360A3891A072FD523696BB32369206838
:101A9C00F6B2C01A63693746834204DC21462846F5
:101AAC0000F022F930BBA3680130013BA36023682E
:101ABC005A1C22601E706369834204D0A389DB0721
:101ACC0006D50A2E04D12146284600F00DF988B916
:101ADC003846F8BD0A4B9C4201D1AC68CFE7094BA4
:101AEC009C4208BFEC68CAE72146284600F00CF877
:101AFC000028CBD04FF0FF37EAE700BF442900089D
:101B0C006429000824290008324B70B51D6806466C
:101B1C000C4625B1AB6913B9284600F079F92E4B68
:101B2C009C420FD16C68A389B4F90C2019072CD4F2
:101B3C00DD0611D40923336042F040034FF0FF302F
:101B4C00A3813EE0254B9C4201D1AC68EBE7244BD2
:101B5C009C4208BFEC68E6E7580712D5616B41B1AF
:101B6C0004F14403994202D03046FFF73BFE0023B8
:101B7C006363A38923F02403A38100236360236997
:101B8C002360A38943F00803A38123694BB9A3897C
:101B9C0003F42073B3F5007F03D02146304600F0E8
:101BAC00FDF9A089B4F90C2010F001030AD0002330
:101BBC00A36063695B42A361236943B910F08000A1
:101BCC00BAD170BD810758BF6369A360F4E70020E8
:101BDC00F7E700BF680000204429000864290008CA
:101BEC00242900088A89F8B5054610070C4657D4F5
:101BFC004B68002B04DC0B6C002B01DC0020F8BDC7
:101C0C00E66A002EFAD0002312F480522F682B6063
:101C1C0032D0606DA3895A0705D56368C01A636B0F
:101C2C000BB1236CC01A00230246E66A2846216ACF
:101C3C00B047431CA38906D129681D292CD8294AF1
:101C4C00CA40D60728D5002262602269D9042260D6
:101C5C0004D5421C01D12B6803B96065616B2F6000
:101C6C000029CBD004F14403994202D02846FFF757
:101C7C00B9FD00206063C2E7216A01232846B04702
:101C8C00411CC7D12B68002BC4D01D2B01D0162BA7
:101C9C0001D12F60B2E7A38943F04003A381AEE7E3
:101CAC000F69002FAAD0930718BF00230E6808BF36
:101CBC004B69F61B0F608B60002E9FDD33463A4656
:101CCC002846216AD4F828C0E047002806DCA389FE
:101CDC004FF0FF3043F04003A38190E70744361ADE
:101CEC00EAE700BF0100402038B50B6905460C46F9
:101CFC0013B90025284638BD18B183690BB900F01B
:101D0C0087F8144B9C421BD16C68B4F90C30002B37
:101D1C00EFD0626ED00704D4990502D4A06D00F008
:101D2C0015F928462146FFF75DFF636E0546DA0775
:101D3C00E0D4A3899B05DDD4A06D00F008F9D9E7A8
:101D4C00054B9C4201D1AC68DFE7044B9C4208BFB9
:101D5C00EC68DAE744290008642900082429000803
:101D6C00002310B50446C0E90033C0E90433836096
:101D7C0081814366C2818361194608225C30FFF77A
:101D8C0029FD054B24626362044BA362044BE3629E
:101D9C00044B236310BD00BF1D2600083F2600081E
:101DAC00772600089B260008014900F0AFB800BF59
:101DBC00F51C0008682270B54D1E55430E4605F102
:101DCC007401FFF757FD044640B10021C0E900162D
:101DDC000C30A06005F16802FFF7FCFC204670BDDA
:101DEC00014800F0B3B800BF51060020014800F0D4
:101DFC00AEB800BF51060020014800F0A7B800BFE4
:101E0C0052060020014800F0A2B800BF5206002084
:101E1C0010B50446FFF7F0FFA3691BB1BDE81040F5
:101E2C00FFF7F0BFC4E912332365134B134A1B6849
:101E3C00A262A34208BF0123204608BFA36100F0A1
:101E4C001FF86060204600F01BF8A060204600F0F0
:101E5C0017F800220421E0606068FFF781FF01227F
:101E6C000921A068FFF77CFF02221221E068FFF72E
:101E7C0077FF0123A361D1E720290008B51D0008D5
:101E8C00F8B50746FFF7ACFF1E4B1E68B36913B9D4
:101E9C003046FFF7BDFF4836D6E90134013B03D588
:101EAC0033680BB33668F7E7B4F90C50D5B9164B59
:101EBC0004F15800E360656600F047F8FFF796FF01
:101ECC0008222946C4E90155C4E904552560A561D9
:101EDC0004F15C00FFF77EFCC4E90D55C4E9125512
:101EEC002046F8BD6834D9E704213846FFF762FF75
:101EFC00044630600028D5D1FFF778FF0C233B60F7
:101F0C00EEE700BF202900080100FFFF2DE9F84390
:101F1C0006468846002700F14804D4E90195B9F13A
:101F2C00010905D52468002CF7D13846BDE8F883A3
:101F3C00AB89012B07D9B5F90E30013303D02946F3
:101F4C003046C04707436835E9E77047704770472C
:101F5C0070B50E46B1F90E10144600291D4696B008
:101F6C0008DA0022B6F90C302A601A0610D44FF4A5
:101F7C0080630EE06A4600F0B1FB0028F1DB019AA9
:101F8C0002F47042A2F500535A425A412A60EEE71D
:101F9C0040230020236016B070BD00008B8973B500
:101FAC009D0706460C4607D504F1470323602361C1
:101FBC000123636102B070BD6A4601ABFFF7C8FF35
:101FCC00009905463046FFF755FC48B9B4F90C307A
:101FDC009A05EFD423F0030343F00203A381E3E754
:101FEC000D4BB362A389206043F08003A381009B57
:101FFC0020616361019B5BB13046B4F90E1000F0B7
:10200C007FFB28B1A38923F0030343F00103A381D1
:10201C00A0890543A581CDE7B51D00080148FFF750
:10202C0095BF00BF500600200148FFF790BF00BFCE
:10203C0050060020936810B4013B002B936007DA24
:10204C009469A34201DB0A2902D110BCFFF70ABD37
:10205C001368581C10601970084610BC7047F8B50E
:10206C0006460F461446D518AC4201D1002007E0B5
:10207C003A46304614F8011BFFF7DCFF431CF3D142
:10208C00F8BD00002DE9F04F0D4614469846064663
:10209C009DB018B183690BB9FFF7BAFE894B9D420D
:1020AC001BD175686B6ED90705D4AB899A0502D420
:1020BC00A86DFFF74BFFAB891B0701D52B69EBB95B
:1020CC0029463046FFF720FDC0B16B6EDC070ED5FC
:1020DC004FF0FF301DB0BDE8F08F7B4B9D4201D11E
:1020EC00B568DFE7794B9D4208BFF568DAE7AB8945
:1020FC009805EDD4A86DFFF72AFFE9E700230993B3
:10210C0020238DF8293030234FF00109CDF80C80B5
:10211C00DFF8BC818DF82A3023469A4613F8012B40
:10212C000AB1252AF9D1BAEB040B0BD05B46224637
:10213C0029463046FFF793FF013000F0AA80099A38
:10214C005A4409929AF80030002B00F0A280002328
:10215C004FF0FF32CDE905230AF1010A04930793EE
:10216C008DF853301A935446052214F8011B584825
:10217C0000F0E8FA049AD8B9D10644BF20238DF8B0
:10218C005330130744BF2B238DF853309AF800308B
:10219C002A2B15D0544600204FF00A0C079A2146E2
:1021AC0011F8013B303B092B4ED9B0B1079214E02A
:1021BC00A0EB080309FA03F31343A2460493D2E7F6
:1021CC00039B191D1B680391002BBBBF5B4242F0A4
:1021DC00020207930793B8BF049223782E2B0CD1DD
:1021EC0063782A2B35D1039B02341A1D1B6803928A
:1021FC00002BB8BF4FF0FF330593DFF8D8A00322B4
:10220C005046217800F09EFA40B14023A0EB0A0022
:10221C0003FA00F0049B01340343049314F8011BEC
:10222C0006222D488DF8281000F08CFA00283FD09B
:10223C002A4B1BBB039B073323F007030833039381
:10224C00099B3B44099367E70C4601200CFB0232C7
:10225C00A5E700234FF00A0C1946013405932046DC
:10226C0010F8012B303A092A03D9002BC5D005915F
:10227C00C3E7044601230CFB0121F0E703AB0093F9
:10228C002A463046164B04A9AFF300800746781C4B
:10229C00D6D16B6ED90705D4AB899A0502D4A86D3B
:1022AC00FFF755FEAB895B063FF512AF099811E7B6
:1022BC0003AB00932A463046094B04A900F082F880
:1022CC00E4E700BF44290008642900082429000819
:1022DC00842900088A2900088E29000800000000C3
:1022EC006B2000082DE9F047164699468A680B6961
:1022FC0007469342B8BF1346336091F843200C460F
:10230C00DDF820800AB1013333602368990642BF9F
:10231C00336802333360256815F0060506D104F1E5
:10232C00190AE36832689B1AAB4228DC94F8432004
:10233C00131E226818BF012392062DD44946384635
:10234C0004F14302C047013020D02368E56803F054
:10235C000603042B18BF002532684FF00006A36853
:10236C0008BFAD1A226908BF25EAE5759342C4BFC0
:10237C009B1AED181A34B5421AD1002008E001233B
:10238C00524649463846C047013003D14FF0FF3022
:10239C00BDE8F0870135C4E73020E11881F843002F
:1023AC005A1C94F845102244023382F84310C5E7B6
:1023BC000123224649463846C0470130E6D0013653
:1023CC00D9E700002DE9FF470F7E9146782F804614
:1023DC000C469A460C9D01F1430207D8622F0AD88D
:1023EC00002F00F0D980582F00F0A48004F1420592
:1023FC0084F842703AE0A7F16303152BF6D801A1DB
:10240C0051F823F0692400087D240008F923000802
:10241C00F9230008F9230008F92300087D2400089B
:10242C00F9230008F9230008F9230008F923000810
:10243C008B250008AD2400086D250008F923000841
:10244C00F9230008AD250008F9230008AD24000885
:10245C00F9230008F9230008752500082B681A1DBC
:10246C001B682A6004F1420584F842300123A4E081
:10247C0020682968060601F104030AD50E682B6052
:10248C00002E03DA2D23764284F843300A235E486B
:10249C0019E00E6810F0400F2B6018BF36B2EFE752
:1024AC002B682068191D2960010601D51E6802E001
:1024BC004606FBD51E886F2F0CBF08230A235248F3
:1024CC00002184F843106568002DA8BF2168A56021
:1024DC00A4BF21F0040121600EB9002D4DD015468A
:1024EC00B6FBF3F103FB1167C75D05F8017D3746B9
:1024FC00BB420E46F4D9082B0BD12368DE0708D556
:10250C00236961689942DEBF302305F8013C05F16F
:10251C00FF35521B22614B4621464046CDF800A0A8
:10252C0003AAFFF7DFFE01304CD14FF0FF3004B0AF
:10253C00BDE8F087344881F845702968236851F864
:10254C00046B29601D0614D5DF0744BF43F020033C
:10255C0023601EB9236823F0200323601023AFE708
:10256C00236843F0200323607823284884F84530FF
:10257C00E3E7590648BFB6B2E6E71546BBE72B685A
:10258C002668181D6169286035061B6801D519601D
:10259C0002E07006FBD51980002315462361BAE7CB
:1025AC002B6800211A1D2A601D686268284600F0FD
:1025BC00C9F808B1401B606063682361002384F88C
:1025CC004330A8E72A46494640462369D0470130A4
:1025DC00ABD023689B0713D4E068039B9842B8BF29
:1025EC001846A4E70123324649464046D0470130FD
:1025FC009BD00135E36803995B1AAB42F2DCEBE745
:10260C00002504F11906F5E795290008A62900080C
:10261C0010B50C46B1F90E1000F0A2F80028ABBFB3
:10262C00636DA3891B1823F48053ACBF6365A3812E
:10263C0010BD2DE9F0411F468B890546DB050C4684
:10264C00164605D502230022B1F90E1000F068F8E9
:10265C00A389324623F48053A38128463B46B4F920
:10266C000E10BDE8F04100F017B810B50C46B1F9EA
:10267C000E1000F055F8431CA38915BF606523F4B8
:10268C00805343F48053A38118BFA38110BDB1F9CB
:10269C000E1000F013B8000038B504460846114679
:1026AC000022054D2A601A46FDF74AFD431C02D153
:1026BC002B6803B1236038BD5406002038B50023C5
:1026CC00054D044608462B6000F05CF8431C02D113
:1026DC002B6803B1236038BD5406002038B50023A5
:1026EC00064D0446084611462B6000F053F8431C77
:1026FC0002D12B6803B1236038BD00BF5406002003
:10270C0038B50023054D044608462B6000F04AF806
:10271C00431C02D12B6803B1236038BD5406002042
:10272C0038B50446084611460022054D2A601A4663
:10273C0000F040F8431C02D12B6803B1236038BD74
:10274C0054060020034610B5C9B202449342184601
:10275C0001D1002003E0047801338C42F6D110BD86
:10276C0038B50446084611460022054D2A601A4623
:10277C0000F028F8431C02D12B6803B1236038BD4C
:10278C00540600205822024B4FF0FF301A6070475D
:10279C00540600205822024B4FF0FF301A6070474D
:1027AC00540600205822024B00201A60704700BFCC
:1027BC00540600205822024B4FF0FF301A6070472D
:1027CC00540600205822024B4FF0FF301A6070471D
:1027DC0054060020044A05491368002B08BF0B4619
:1027EC0018441060184670475806002060060020F8
:1027FC00F8B500BFF8BC08BC9E467047F8B500BFE2
:08280C00F8BC08BC9E467047B1
:10281400000000000008014001000000000C01401D
:1028240002000000001001400300000000140140F9
:1028340004000000001801400F0000000200000026
:10284400000000000007000000070000490B00081A
:1028540032003200204EE8030300E8035465726D31
:10286400696E616C00000000000000000000545418
:102874005220524547474553000000007465737465
:102884002025640A00000000014D03000000000040
:102894000A3D3D3D3D3D3D3D3D3D3D207379732029
:1028A400696E6974207374617274203D3D3D3D3DD1
:1028B4003D3D3D3D3D0000005265736574207265E9
:1028C40061736F6E3A203078253038780A00000042
:1028D4003D3D3D3D3D3D3D3D3D3D2073797320698A
:1028E4006E697420646F6E65203D3D3D3D3D3D3D08
:1028F4003D3D3D3D000000000000000000000000E0
:10290400010203040607080902030405060708096F
:102914000A0B0C0D0E0F1010000000006C000020BC
:1029240000000000000000000000000000000000A3
:102934000000000000000000000000000000000093
:102944000000000000000000000000000000000083
:102954000000000000000000000000000000000073
:102964000000000000000000000000000000000063
:102974000000000000000000000000000000000053
:10298400232D302B2000686C4C0065666745464754
:1029940000303132333435363738394142434445D7
:1029A4004600303132333435363738396162636446
:0429B4006566000054
:0429B80031010008E1
:0429BC000D01000801
:1029C00000080040000000000000000000000000BF
:1029D00000000000000000000000000000000000F7
:1029E00000000000000000000000000000000000E7
:1029F00000000000000000000000000000000000D7
:102A000000000000000000000100000000000000C5
:102A10000000000000000000000000000024F4009E
:102A200001000000100000006C0000200000000009
:102A30004429000864290008242900080000000037
:102A40000000000000000000000000000000000086
:102A50000000000000000000000000000000000076
:102A60000000000000000000000000000000000066
:102A70000000000000000000000000000000000056
:0C2A80000000000000000000000000004A
:040000050800174D8B
:00000001FF
